:020000041000EA
:1000000000B5324B212058609868022188439860DF
:10001000D860186158612E4B002199600221596106
:100020000121F02299502B49196001219960352056
:1000300000F044F80222904214D00621196600F024
:1000400034F8196E01211966002018661A6600F04E
:100050002CF8196E196E196E052000F02FF8012189
:100060000842F9D1002199601B49196000215960AB
:100070001A491B48016001219960EB211966A021F2
:10008000196600F012F800219960164914480160C1
:100090000121996001BC002800D000471248134993
:1000A000086003C880F30888084703B5996A0420EC
:1000B0000142FBD001200142F8D103BD02B5186610
:1000C0001866FFF7F2FF186E186E02BD00000240BE
:1000D000000000180000070000035F00212200005C
:1000E000F4000018222000A00001001008ED00E03C
:1000F00000000000000000000000000074B24E7A12
:1001000000200420F7010010CB010010CD010010E9
:10011000C9010010C9010010C9010010C901001077
:10012000C9010010C9010010C9010010CF01001061
:10013000C9010010C9010010D1010010D301001045
:10014000C1010010C1010010C1010010C101001067
:10015000C1010010C1010010C1010010C101001057
:10016000C1010010C1010010C1010010C101001047
:10017000C1010010C1010010C1010010C101001037
:10018000C1010010C1010010C1010010C101001027
:10019000C1010010C1010010C1010010C101001017
:1001A000C1010010C1010010C1010010C101001007
:1001B000C1010010C1010010C1010010C1010010F7
:1001C000EFF30580103800BE00BE00BE00BE00BECA
:1001D00000BE00BEF2EB887184780010A078001099
:1001E0003802001090A31AE71E481F49086006C88D
:1001F00081F3088810471D480068002801D019487D
:10020000F3E70DA40ECC002902D000F012F8F9E7B4
:100210001749184A002000E001C19142FCD116495B
:100220008847164988471649884700BEFDE701C937
:1002300001C29A42FBD37047A0780010C000002092
:1002400058020020387A001000000420000004202A
:10025000387A001000100420001004200000000074
:10026000704700000000000008ED00E0000000D032
:1002700058020020380D002011650010DD06001026
:1002800009650010F8B5C0460448054B10B5834217
:1002900003D0044B002B00D0984710BD580200201B
:1002A000580200200000000006480749091A8B1078
:1002B000C90FC91810B5491003D0044B002B00D04A
:1002C000984710BD5802002058020020000000008E
:1002D00010B5074C2378002B09D1FFF7D5FF054B4C
:1002E000002B02D0044800E000BF0123237010BDA2
:1002F000D8050020000000005C6B0010054B10B515
:10030000002B03D00449054800E000BFFFF7CCFFF5
:1003100010BDC04600000000DC0500205C6B001032
:10032000044A136801331360034B1A68034B1A60C5
:100330007047C046500C0020580C00204C0C002088
:1003400070B504000800012504A909782060217314
:100350006260A36002F020FC2A002368D0269A4045
:1003600036066068726202F017FC2A006368042196
:100370009A40130072622268A06895407561B3616B
:1003800002F074FBA3681F2B1AD81A07520F012121
:1003900000200B406361930022619B180A4A0B4CBA
:1003A0009B009A1810609060D06014611024546013
:1003B000106012681140064A94466344196070BD8B
:1003C0005A07920F0832E2E700000540FFFF0000E5
:1003D00000100540F0B54E46DE4657464546E0B5AE
:1003E0001C00060083B0182946D035D814293BD00C
:1003F000172945D1002A37D0A51824229346264A2A
:10040000264F924600222649914688463B780BE0CB
:100410001A0040462178531C01348154DBB2EAB201
:10042000E1B23B708A421FD05AB2002AF0DA5A4633
:10043000B15C4A46504600924908424606F0ACFA82
:10044000012342463B70237801341370EBB2E2B2D1
:10045000934209D00122DCE7192911D10F4F3B78D3
:10046000002B0FD100233B70012003B0F0BCBB4632
:10047000B246A946A046F0BD0022084B1A70F3E729
:100480000020F2E724210024415C054A4908009439
:10049000014806F081FAE5E740020020300D002017
:1004A000CC0B002010B52A290DD02B2906D02929E4
:1004B00002D1100003F0B6F9012010BD0120002187
:1004C00003F09CF9F8E7900080180021400003F049
:1004D00095F9F1E7F8B5CE464746060080B5052008
:1004E0000C0003F051FB0500200004F0D9FB041CB4
:1004F000280004F0D0FB3C49071C201C04F091FBB1
:10050000011C381C04F079FBFE218905051C04F050
:10051000B7FB1023984600280DD13449281C04F05D
:10052000B5FB002842D0201C304904F07AFBFF23A1
:100530001B019846041C211C381C04F05EFBFE21A4
:10054000890504F054FB04F0CDFB80235B02984244
:1005500026D327484146326993009B18254A9B00C1
:100560009A1851601061244942087069591800288E
:100570001AD0224812040C686240024080204001D8
:10058000844661440A601B4A9A18116801228A4312
:100590001B498C4663441A60C0BCB946B046F8BDDE
:1005A0000A28D7D20A20D5E71148E4E7291C201CE5
:1005B00004F037FB041C281C04F094FBC3B21800A1
:1005C000994604F06DFB011C281C04F010FB8321EC
:1005D000C90504F026FB04F085FB4B46C0B21B01A5
:1005E00018438046A7E7C04600FF7F4700007F43CF
:1005F000FFFF0000000005400C0005400000FFFF69
:1006000000100540F0B5D6464F4646460500C0B539
:100610002F4F82B038001400894601F075F8380079
:100620002C4901F01BFC2B000A220021380001F0AC
:1006300007FC80230C220021380001F007FD002C6C
:1006400005D023000A225621380001F0F9FB224B85
:100650000F2498460A2300269A4625000935ADB294
:10066000B14515D0424608CA0221904638002A00FA
:100670000A34013601F0E4FBA4B2062EEDD13800B5
:1006800001F04EF802B0E0BCBA46B146A846F0BD53
:1006900053462200002138000093802300F0E0FF41
:1006A0000021380001F008FD424608CA02219046A8
:1006B00038002A0001F0C4FB0121380001F0FCFCE5
:1006C0004B460A345E1CA4B2052BC6D1D7E7C04600
:1006D0005C0C0020DC6D0010A86D0010F0B5DE464B
:1006E00057464E464546E0B5F3B005F0F9FFC82041
:1006F00003F098F81C2002F04FFAD02780233F0621
:100700005B0500220121BB621C2002F0C9F9042014
:1007100002F042FA102300220121BB62042002F001
:10072000BFF9032002F038FA082300220121BB623E
:10073000032002F0B5F91D2002F02EFA80230124D7
:100740009B05002201211D20BB6202F0A9F97B68F4
:100750007A681B0F234012092240E7495B001343CC
:100760000B701191E548E64906F0EEF803211A20D6
:1007700002F07CF903211B2002F078F9002201210C
:100780001A2002F08DF9002201211B2002F088F9C5
:10079000DC48DD4B8146DD4ADD4900F0CFFF7822A1
:1007A000242349464846CA5401F0F2FF0021484636
:1007B00001F0F6FF484600F0A7FF484600F0B0FF02
:1007C000122002F0E9F98023DB027B620520BB6185
:1007D00002F0E2F92023002201210520BB6202F091
:1007E0005FF901220C210520CA4B02F06DF97B68EC
:1007F000C94A5B0923401370002308211492009317
:1008000009220A3356A8FFF79BFD10230F220E2161
:1008100000945CA8FFF794FD03F0AEF80E900F91E2
:1008200003F0AAF8BD4B0A909846BD4B0B919A462F
:10083000BC4B4C461293BC4B1393BC4B1593BC4B17
:100840009B46BC4B0793BC4B1993BC4B1093BC4BC2
:100850001693BC4B1893BC4B1F93BC4B1C93BC4BC7
:100860002693BC4B1D93BC4B1793BC4B0893BC4BBE
:100870000D93BC4B2D93BC4B2993BC4B2093BC4B8D
:100880002593BC4B2A93BC4B2E93BC4B2C93BC4B57
:100890002793BC4B1A93BC4B2893BC4B3293BC4B55
:1008A0001B93BC4B0C93BC4B3093BC4B1E93BC4B6B
:1008B0002193BC4B2293BC4B2393BC4B2493BC4B46
:1008C0003A93BC4B3B93BC4B3C93BC4B4393BC4BCC
:1008D0003393BC4B3D93BC4B3E93BC4B3F93BC4BC3
:1008E0004093BC4B4193BC4B3193BC4B4993BC4BA5
:1008F0003493BC4B2B93BC4B4293BC4B3593BC4BBA
:100900003693BC4B3793BC4B4893BC4B3893BC4B92
:100910004793BC4B3993BC4B4493BC4B4593BC4B66
:1009200046935B46C346D046099303F025F80490EE
:10093000059104980599002900D16BE3FA22002360
:10094000920003F059FB05000A980B995B461D6065
:10095000049A059B121A8B41002B04DC14D1FA2156
:1009600089008A4210D914997B680A789B06DB0FAC
:100970009A4205D00B70434642461B680133136010
:10098000049A059B0A920B9301217B687A681B0FDE
:100990000B40120911405B000B43119912980A7821
:1009A0000B7092001A43D2B28256002A20D000DC8B
:1009B000BDE3012001220021139B5956002900D1DB
:1009C0006BE31300914200D167E31399159E0A70FF
:1009D0000799099A08781999126809683370691A91
:1009E000032905D9002B00DDA5E301D000F037FC79
:1009F000109A079910787B68099A097812681B0782
:100A000000D50EE3002800D1B4E3169E7B68307851
:100A10009B0000D52AE3002800D058E3012333705F
:100A2000189B18701F9B1D60012A00D15DE30029EF
:100A30001FD100215CA80D9B089E1B783678042BE3
:100A400000D103E3022B00D1BDE300D97FE3002BEB
:100A500000D1C5E3012901D100F042FC022901D1F6
:100A600000F073FC062901D000F0E3FC00230D9A8E
:100A70001370089B1B78002B00D153E1079B1A7859
:100A80000C9B1B78002B00D142E31B9B1B68EB1ACD
:100A900001210C9801701A990968994200DB01E361
:100AA000179B1B68002B05D0ED1A279B1B689D42E6
:100AB00000DCF7E2002A00D0C2E0289B1D78002D60
:100AC00000D1F3E20122079B30991A701C9B514D13
:100AD00019608023DB027B610023AC4608994E48F5
:100AE0000B705A998B005B189B00191809686344B6
:100AF00011401960110091E02E0D002040020020ED
:100B0000801A06005C0C0020A5040010D50300101C
:100B1000AC75001021030010A4010020580C002027
:100B2000540C0020CC6D00102D0D00202C0D002049
:100B30009C0100202F0D0020C40B0020290D002057
:100B40002A0D00202B0D0020BC0B0020A00100204E
:100B5000746D0010500C00204C0C0020330D002050
:100B6000350D0020FC0C0020F40C00201C0D002092
:100B7000F80C0020B8010020B4010020B0010020D2
:100B8000AC010020A8010020280D002098010020C1
:100B9000000D0020340D0020886B0010DC6D00106B
:100BA0009C6B0010A46B0010B46B0010886D0010DB
:100BB000C06B0010CC6B0010D86B0010606B001085
:100BC000646B0010F06B00100C6C0010186C0010BF
:100BD000C06D0010206C0010486C0010686B001095
:100BE0006C6B00102C6C0010306C0010386C001016
:100BF0009C6D0010406C0010786B0010706B001042
:100C00007C6B0010806B0010446C00104C6C00106A
:100C1000586C00100010054000000540569B99409C
:100C2000796160998B005B189B001918096863440F
:100C3000114019605C9B9A4005237A610D9A1370EC
:100C40000E980F99049A059B121A8B411100002BE4
:100C500005DC00D069E69A4B994200D865E6200091
:100C600000F052FD20001E9901F0F8F80A22002140
:100C7000219B200001F0E4F880230C2200212000B9
:100C800001F0E4F91C9B1E2200211B68200001F0EA
:100C9000D7F8229B32220021200001F0D1F8239BBB
:100CA0003E220021200001F0CBF8200000F038FDAA
:100CB000049A059B0E920F9337E60021079B269A14
:100CC00019701C9B7F4E1A608023DB02BB611D9B49
:100CD000012219604346B4461960179B14981960A5
:100CE0007B68794D5B09134003705A98089B197013
:100CF00083001B189B00581900686344104018605B
:100D00001000569B98407861609883001B189B00E8
:100D1000581900686344104018605C9B9A400D9B12
:100D20007A61197000230E980F990C9A1370049A27
:100D3000059B121A8B411100002B05DC00D0F4E555
:100D40005F4B994200D8F0E5079B01251B78002BEB
:100D500085D10D9B1B78042BAAD8249A9B00D358CD
:100D60009F460021182262A804F012F8209B1968FF
:100D7000002900D10BE3012900D114E3022900D19D
:100D80001DE3032900D126E3042900D12FE305291F
:100D900000D1E7E2429862AAFFF734FC88E7209B83
:100DA000002219684198FFF72DFC81E7299B20005C
:100DB0001B680F250E9300F0A7FC20001E9901F080
:100DC0004DF80A2200213F9B200001F039F88023D2
:100DD0000C220021200001F039F9409B9A460023A3
:100DE00099465B462F93099B4E469B46A1462C0095
:100DF0000E9B0934A4B2B34200D1F5E1524608CAB1
:100E000002219246484622000A35013601F018F8C0
:100E1000ADB2032EEBD15B4609932F9B4C469B460C
:100E200043E7200000F070FC20001E9901F016F846
:100E30000A2200213A9B200001F002F880230C22B4
:100E40000021200001F002F9012340213B9A62A811
:100E500005F02CFB1822002162AB200000F0F0FF0F
:100E60002C9A2A9B12681B6801922E9A40211268C4
:100E700062A800923C9A05F019FB242262AB002183
:100E8000200000F0DDFF7A68339B9206D20F002D20
:100E900000D0439B40461D9900680968029001916B
:100EA000009240213D9A62A805F000FB3C2262AB13
:100EB0000021200000F0C4FF32223E9BF1E6C04634
:100EC000803801000010054000000540200000F0BF
:100ED0001BFC20001E9900F0C1FF0A220021200007
:100EE000359B00F0ADFF802320000C22002101F093
:100EF000ADF8369B11259A46002399465B464E462F
:100F0000A1462C000E93099B09349B46259BA4B255
:100F10001B689E4215D053462200022148461B689A
:100F2000013600F08DFF032E25D004230C35ADB221
:100F30002C009C46259B09341B68E244A4B29E42C7
:100F4000E9D10C232A00002148460093743300F0B5
:100F500087FB0021484601F0AFF8534622000221EA
:100F60001B68484600F06CFF01360121484601F03D
:100F7000A3F8032ED9D15A460E9B09929B46102105
:100F800013684AA8379A05F091FA329B4C461A78B2
:100F9000389B012A03D0349B022A00D1489B2B9A0C
:100FA00010214EA805F082FA089B1A78399B002A76
:100FB00000D0479B10212B9A52A805F077FA1A22ED
:100FC0005C214AAB200000F03BFF26225C214EABA7
:100FD000200000F035FF52AB32225C21200000F0EF
:100FE0002FFF089B1B78002B00D195E12D9B449A85
:100FF00018211B6862A805F059FA62AB3E22002155
:10100000200000F01DFF3E2248212000459B00F0FB
:1010100017FF4AE6FA210498890002F0AFFF0500A5
:1010200092E4002800D1F0E4002310980370012A14
:1010300000D10CE1002900D01BE50D9B089E1B7818
:10104000367807315CA8042B00D0FBE4002E00D0DA
:101050009CE0012900D13BE1022900D17CE1062975
:1010600000D0D7E101230D9A13705BE6002839D038
:101070000023189833700078002800D0D4E0E120D5
:101080001F9B40001B68EB1A834200D2F6E0012A46
:101090002BD0002900D0ECE4CCE4159B1B78C318BE
:1010A0005BB292E40125002A00D0C9E50E980F99A1
:1010B000049A059B121A8B411100002B00DD48E6B3
:1010C00000D032E4CF4B994200D942E62DE4189B80
:1010D0001B78002B06D1E1201F9B40001B68EB1AF8
:1010E000834209D2012A00D0A1E4002900D0C0E443
:1010F0000021012256A89EE4012318980370012ABA
:1011000000D16EE2002900D0B3E404315CA892E47F
:101110001D990B6041460B6017990B607B68149911
:101120009B06DB0F0B701B9B1D600023B0E40122AC
:10113000FF2052423FE40023199933700D60012AC9
:101140007ED0002800D094E401215CA873E4032B36
:1011500000D08EE4012900D1ADE0022900D198E051
:1011600049235B420B41DB0700D582E402230D9A41
:1011700013707EE4012310980370012A00D1FFE070
:10118000002900D099E506315CA854E4012900D17A
:10119000C4E0022900D1D0E00022062900D06FE48B
:1011A000089B05391A70026993009B18964A9B00A8
:1011B0009A181568954A0D40944663441D6003686B
:1011C00099407961AEE5012900D19AE0022900D168
:1011D0008FE0062900D03CE101230D9A137048E40A
:1011E000032900D045E4F7E70A232A0000214846F6
:1011F0000093763300F034FA0021484600F05CFF9B
:10120000524608CA022192464846220000F018FEC3
:101210000121484600F050FF0E9B0A355E1CADB21E
:10122000022B00D0E3E5F6E518980370012A00D1FF
:1012300017E1002900D01CE405315CA8FFF7FBFB97
:10124000002800D015E4012156A8FFF7F4FB00297F
:1012500001D0FFF70EFC073156A8FFF7ECFB002387
:101260003370199B1D60012A00D1E9E1002801D0EB
:10127000FFF7FFFB02215CA8FFF7DDFB012A00D18D
:101280003AE1002901D0FFF7F4FB03315CA8FFF736
:10129000D2FB209B1B68002B00D014E12A9B5C4AE8
:1012A0001B68C83B934211DCC82B00DAC8232A9A7A
:1012B0001360FFF7DEFB209B1B68002B00D0D8E0FB
:1012C0002A9B534A1B68C8339342EDDD1300EEE7B7
:1012D000259A13680133022B1CDD0223136021E5DC
:1012E000299A13680133022B08DD02231360FFF7EC
:1012F000C0FB209A1368013B00D500231360FFF761
:10130000B8FB209A13680133052BF7DD0523136022
:10131000FFF7AFFB136005E5469BC1E42D9B196801
:101320003B4BC83199420EDCC82900DAC8212D9BFD
:101330001960FFF7CFF8FFF79CFB2D9B1968344B22
:10134000C8399942F0DD1900F1E7299A1368013B89
:10135000D3D41360FFF78DFB259A1368013BD9D5D1
:101360001660DFE4289B1A78349B002A00D0499B42
:1013700018212B9A62A805F099F8209B196809E5B5
:10138000002900D099E4063156A8FFF754FB2A9BA8
:1013900018311B68319A62A805F088F8209B1968FB
:1013A000012900D0EAE42E9B17311B68319A62A80C
:1013B00005F07CF8209B1968022900D0E1E42C9B01
:1013C00016311B68319A62A805F070F8209B1968E5
:1013D000032900D0D8E4279B15311B68319A62A8F5
:1013E00005F064F8209B1968042900D0CFE41A9B0B
:1013F00014311B68319A62A805F058F8209B1968CF
:10140000C5E4C046803801000000054000100540DA
:1014100030750000032900D084E4259B1B68002B55
:1014200000D086E0013A53425A41099B01321A60CA
:1014300078E4032901D0FFF71CFB299B1B68002BD4
:1014400000D0B2E002220D990A70209A1360FFF7D3
:1014500010FB032901D0FFF70CFB0D9B1970FFF760
:1014600008FB002901D0FFF704FB053156A8FFF760
:10147000E2FA012B48D0022B36D0032B0BD0042BE1
:1014800000D0BFE01A9B724A1B68F533FF339342CA
:1014900000DDA2E09EE0279B6E4A1B686433934206
:1014A0000FDC642B00DA6423279A1360FFF7E1FA5C
:1014B000032B00D085E0279B664A1B68643B934260
:1014C000EFDD1300F0E7012B2BD0022BF0D12C9B8A
:1014D0005F4A1B68C83B93420CDCC82B00DAC82368
:1014E0002C9A1360FFF7C5FA2C9B594A1B68C83326
:1014F0009342F2DD1300F3E7002901D0FFF7B9FAB8
:10150000033156A8FFF797FA2E9B514A1B68C83340
:1015100093420CDCC82B00DAC8232E9A1360FFF725
:10152000A8FA2E9B4A4A1B68C83B9342F2DD13007F
:10153000F3E7012B5DD0022B01D0FFF7F3FB089AF4
:10154000013B1370329B1B789A46012B75D02E9B62
:1015500019682D9B0268196001231E009640D02255
:10156000120696614668B34099465346013B1E00F9
:1015700073427341067BB3424FD14B4693610029BE
:101580004EDDFEF7A7FF00231D9A1360424613604D
:10159000179A1360D0231B065B68149A9B06DB0F17
:1015A00013701B9B1D60FFF764FA012B01D0FFF73E
:1015B0005DFA0D9A033313700023259A1360FFF729
:1015C00058FA042B1ED11A9B214A1B68F53BFF3B9E
:1015D000934202DCDA43D2171A401A9B1A60FFF7D3
:1015E00048FA002901D0FFF744FA043156A8FFF762
:1015F00022FA32990B78013B5A42534101330B7066
:10160000FFF790FB052B01D0FFF733FA0122289951
:101610000B7853400B70FFF72CFA4B465361AEE743
:1016200014220121036953430B4A9A1812680A4095
:101630000A498C4663441A60A5E72A9B196888E723
:10164000002801D0FFF715FA022156A8FFF7F3F999
:1016500030750000881300000000054000100540B0
:10166000F0B54746CE46984680B583B00AAB1B8896
:101670000700D61899464346B6B2CB189BB20096DF
:101680000D00140000F01EFD002810D04B46002B6A
:101690000DD0002399464B462200013400932900C7
:1016A00043463800A4B200F063FCA642F3D103B075
:1016B000C0BCB946B046F0BDF0B5C646382300B54B
:1016C000C75C0133C45C036806005A7C0025904661
:1016D00082B002E0A04513D933682A001B7C716BED
:1016E0005A43D20092B28A180092002122003000A0
:1016F000013501F035F80134EBB2E4B29F42E9D88C
:1017000002B080BCB846F0BD382210B50368825CD8
:101710001B7C00215A43406BD20003F039FB10BD03
:1017200010B50400FFF7C8FF200001F041F810BD1C
:1017300008230370004870478807002070B5040034
:101740000F260B4884B00D0000930A4913006E4425
:101750000200200001F03AF83000FFF7E9FF32788C
:101760000100054B2000009500F014FE04B070BD90
:1017700025250010E525001019210010435C4018B4
:1017800040780002184340BA80B27047002070478A
:101790008378C0780002184340BA80B27047C046D0
:1017A000037840780002184340BA80B27047C046C0
:1017B000012B09D0022B04D0002B08D1801880B255
:1017C0007047801A80B2FBE7401880B2F8E7401AF1
:1017D00080B2F5E7012B09D0022B04D0002B08D1F1
:1017E000401880B27047401A80B2FBE7801A80B27E
:1017F000F8E7801880B2F5E7F0B5DE4657464E466A
:1018000045460200E0B58DB0016694460690602022
:101810000023604403737833D35C83460C78100054
:101820001A00072B03D90131083A0166D2B2012010
:10183000404298405B4684431A7363B298465B46C5
:1018400040469872792306980F78C55C1741531962
:10185000DBB2072B00D98FE1F8B201225242AA4035
:1018600090435A465D46137342B2EA720A9292223C
:10187000069E0290B25CAA7355426A415D46EA73C5
:101880007A22B65C0D78F218D2B21D41072A00D92F
:1018900060E1EBB204935B461A737B23069DEB5C1D
:1018A0000D789C469B18DBB21541072B00D940E10F
:1018B000EAB292465A4613730F787C2238001841D8
:1018C000069DAA5C0390D518EDB2072D00D91DE145
:1018D000C1B25B461D7301235B421D009540A943C5
:1018E0000D0001210F00D218D2B29740ED1B6AB251
:1018F00091464246002A00DC00E11A00B240049DF5
:10190000F61895430A00F6B2B240AD1A6246D218F4
:10191000D2B29140029A6DB28E1A624693405246FC
:101920009A435B461B7CB61A98465B4676B298880B
:10193000320043462900FFF74DFF5B463200988096
:1019400007002900D8884346FFF732FF5B46D8805E
:1019500043460200022B00D11BE100D996E1002B87
:1019600000D123E10A9BA118F81A01307B1C9BB21D
:1019700089B287B2069C00912000390000F0A2FBDA
:10198000002800D1BAE000226823E2525B461B7BAC
:1019900007924A46276E00240B927621069A3D78DC
:1019A000515C1D41CA18D2B2072A00D95FE1EBB2DF
:1019B000012040428840834399465B461A7377234F
:1019C00006993878C95C10418B18DBB2072B00D917
:1019D0003FE1C2B2012040428840824308925A4609
:1019E00013734B465F460993E3B29A466B46099ED2
:1019F0001B7F5246B1469A460292BB7A9D1A984680
:101A000053465BB29B467B7BEDB2002B00D1D3E00B
:101A10004E4694195346D946E4B2B5420ED84246D2
:101A2000A41A0133E4B2DBB2A04505D8A41A0133ED
:101A3000E4B2DBB2A242F9D95AB291464A467A726E
:101A4000089ACB4616003C72059309E0049BE41A01
:101A5000059BE6B20133DAB25BB200249B460592E5
:101A6000BB7A04931B1BDBB298461D1CB34200D902
:101A7000351C62B292465A46FB88B8880293079298
:101A80003A7C5146914613005A46FFF7A3FE4B4657
:101A90005A46514603900298FFF78AFE9221BB7B7B
:101AA00002000698EDB243544B4603990093A419E3
:101AB0002B0000F05DFAE4B2B045C7D95B4664B2D2
:101AC0007B72069B3C72397B186E4B1C0278DBB232
:101AD000D9460A41072B00D9A5E03B73D20783D42E
:101AE000BB46C84607000A9A424500DD55E70B9BF6
:101AF000069999465B469A7B9223CA5448460DB094
:101B0000F0BCBB46B246A946A046F0BD481C814683
:101B10004F460698083D07664978EDB28946082188
:101B2000C91A4B46C9B28B401900039B1943C9B26D
:101B3000CFE606984F1C076608208146484649783C
:101B4000821AD2B291402943CAB2083B9246390068
:101B5000DBB2AFE606984F1C076608208446604655
:101B60004978C31ADBB299400B002B43DBB2083A29
:101B700039000493D2B28EE64E1C066648780821DE
:101B80008A1AD2B29040083B38433100C0B2DBB26F
:101B900063E601210A980C1B091A7B1C50183C199A
:101BA000511C9BB289B282B2A7B2E3E60A99E3194B
:101BB00041189BB289B2DDE6BB88082603936B46C9
:101BC0009E573B7C92241A00F8880493FB7B06996D
:101BD0000B551300140031005A46FFF7E9FD2300AE
:101BE000310005905A460398FFF7F4FD2B1C0100C5
:101BF0004D4500D94B46049A06980092DBB2059AEF
:101C000000F0B6F9029C4C44E4B24D451ED8434660
:101C1000E41AE3B2994653460133DBB29A460023F5
:101C20001A000293E9E60825069B461C1E664078CA
:101C3000CB1F691AC9B28840DBB202433B73D2079B
:101C400000D5D1E6BB46C84637004CE75346D946D7
:101C5000F4E6069E7D1C356608267D78B21AD2B25F
:101C600095402A00083B0243D2B2DBB2B2E6069EA0
:101C7000781C30667E780827FB1ADBB29E40330062
:101C8000083A2B430700DBB2D2B291E6032B08D10E
:101C90000A9B041BFB180134411C9BB289B2A2B2FF
:101CA00068E601003B0065E670B5846D0E001734F0
:101CB000FF2911D8602935D98823C35AE4186378DD
:101CC000002B07D02278A01CB24204D0E41863781D
:101CD000002BF7D1002070BD8A23C35AE4182500D9
:101CE0002800FFF75DFD24182800FFF751FD04359B
:101CF0008642F5D8637822781B0213435ABA92B20F
:101D0000002BE7D096420BD0A378E41863782278B2
:101D10001B0213435ABA92B2002BDBD09642F3D186
:101D2000E01CD8E74029CAD98623C35AE418CEE775
:101D3000F0B5DE4657464E464546E0B583B01E0038
:101D400004008946904600F057FB002301933A4B6C
:101D50003A4F9A4670239B46200031786368984733
:101D60000500B84234D001365045F5D05B46E35CFF
:101D7000022B56D03BD8002B46D0E36D200098476D
:101D80004B46181A434680B26422A0520232290000
:101D9000A3522000FFF788FF0023011E07D0200078
:101DA000FFF72AFD019A83B2D21892B201925A46E5
:101DB000A25C022A30D013D8002A21D043449BB21F
:101DC000984620003178636898470500B842CAD128
:101DD000019803B0F0BCBB46B246A946A046F0BD90
:101DE000032AB9D14246D31A9BB29846B4E7032BD3
:101DF0001FD1E36D200098474844434680B2C3E7B3
:101E00004B449BB29946A7E7E36D20009847030037
:101E1000434448469BB2B7E74A46D31A9BB2994619
:101E20009AE7E36D2000984743461B1A9BB2484649
:101E3000AAE743464846A7E7FEFF0000FFFF000071
:101E400010B5024C4460FFF773FF10BDE52300108E
:101E5000014BC3657047C0468D170010F0B54E4664
:101E6000DE4657464546E0B5836D06000C0085B05A
:101E70008B424CD07423050081650A787435C254B6
:101E80004B780D276B708B782000AB70CB78EB70A4
:101E90000B792B714B796B718B79AB71CB79EB71C2
:101EA0000B7A2B724B7A6B728B7A02930A23CB5686
:101EB000AB729946CB7AEB720B7B03930C23CB5618
:101EC0002B739A460E23CF576F73CB56AB7398463E
:101ED0000F23CB56EB739B461023CB5611212B744B
:101EE0000193FFF74BFC132168822000FFF746FCAB
:101EF0001521A8822000FFF741FC8F238E22414646
:101F0000E882B754F154023BF35C002B06D105B0D4
:101F1000F0BCBB46B246A946A046F0BD012B0ED090
:101F20004B4653449F4204DA0399029B8C46634418
:101F3000B354C245EBDA8F235246F254E7E73B1C19
:101F40005F4507DB8E22B354019A9045DFDD8F2376
:101F5000F254DCE75B46F5E730B583B0C58F06ACDD
:101F60002478521B009492B2C46AA04703B030BDDB
:101F700070B582B006AC25788C24045D002C51D05D
:101F8000002B4FD0012B03D0022D24D0032D55D090
:101F9000ED0723D54824045B8C4243D84A24045BD4
:101FA0008C423FD94C244E259B189BB2045B455B69
:101FB00093423ED3954235D99C4233D2261C94425B
:101FC00000D2161CB2B22C1C9D4200D91C1CA31AB4
:101FD00001259BB222E00131C91A89B24C24045B6D
:101FE00094421FD84E24045B94421BD948244A25AE
:101FF0005B189BB2045B455B8B4215D38D4211D9B4
:102000009C420FD2261C8C4200D20E1CB1B22C1C5A
:102010009D4200D91C1C0025631A9BB2046B0095DD
:10202000A468A04702B070BD8D420BD96B1E9BB255
:10203000E6E7954208D96B1E9BB2BDE70132D21A82
:1020400092B2A7E72100D9E72200B3E770B58C244C
:10205000045D82B0002C25D0002B23D04C24045BDF
:1020600094421FD84E24045B94421BD94824CB18B9
:10207000065B9BB20234055B994215D88D4211D99B
:102080009E420FD2341C8E4200D20C1CA1B22C1CDA
:102090009D4200D91C1C0025631A046B0095A4689E
:1020A0009BB2A04702B070BDA94202D26B1E9BB288
:1020B000E6E73100E2E7C046022900D90121922378
:1020C000C1547047F0B54E264C25865B05AC0F0019
:1020D0002488455B964211D9A54203D3A24201D878
:1020E0000020F0BD4A214822415A825AB9420AD9F9
:1020F0009A420ED3BB429B415842F2E7A542EFD22F
:10210000A242EFD8ECE79A42EAD2BB429B41584246
:10211000E7E70120E5E7C046F0B54E464546DE4616
:102120005746E0B507260124894609A909781640D3
:102130008C469221B440415C0025E4B2012905D8C7
:1021400001394F1EB941494225000C4007218A43FD
:102150001100426B674690460268127C4A4392B275
:102160004A44110042465218002F25D092210727D9
:102170008C461178013B294361401170711C3E006F
:102180009BB20E400F4212D1418F52186146415C02
:10219000012908D90124002BEBD1F0BCBB46B24683
:1021A000A946A046F0BD01250129F4D0F2E76D0053
:1021B0006400EDB2E4B2EEE7504286B2B2460326C6
:1021C00030405E1EB6B2B446C61C042E6BD9B6B201
:1021D000664542D8002872D016782E4366401670A5
:1021E0005646B70769D556782E4366405670032881
:1021F0005ED196782E4366409670DE1EB6B2B44627
:1022000003321B1A9BB29946043B9BB29B080133D5
:102210002E029B462E432B042F061E433E43B246FE
:102220002602270426433E433602360A2706374352
:10223000002640184044534601680136194379404E
:1022400002C0B1B25945F6D35B469B0099B26346D2
:102250005B1A9BB2521889459FD01178294361407F
:102260001170012B99D05178294361405170022B94
:1022700093D09178294361409170032B00D18CE772
:10228000D17829436140D170042B00D185E71179C1
:10229000294361401171052B00D17EE753791D431D
:1022A0006C40547179E70526B6B2664592D9D4E7F9
:1022B0009E1EB6B2B4460232A3E70132A1E79C46A5
:1022C0009FE7C04610B582B004AC24780094FFF7B5
:1022D00043FE02B010BDC046382370B5C15C026831
:1022E000CD008587137CDB0043873923C65CF30070
:1022F000C387547C8919A14202DDA41BE400A5B266
:10230000402143525B19023143524423918AC15206
:10231000D28A0233C25270BD70B5002348254353A0
:102320004433C25A0633C252036C5422C36450264B
:1023300052230400C35A825A815B5620205A82B02D
:1023400000902000FFF7BEFE002804D100228C235D
:10235000E25402B070BD8C230122E254A35B625BA5
:102360009A4200D263535223E25A083BE15A914207
:1023700000D9E2525423E25A083BE15A914200D27A
:10238000E2525623E25A083BE15A9142E1D9E25225
:10239000DFE7C04670B50400E362002538236163BF
:1023A000A565E25402220133E5543433E554203369
:1023B000E5540433E5540498FF320133E2520368D4
:1023C000206320009847064B200023656365236B3C
:1023D0005B6898472000FFF73BFD7023E55470BD14
:1023E0000000FFFF002903D00A2901D00800704730
:1023F0000048FCE7FFFF000026230022C25470477C
:1024000010B513000A0004691721A04710BDC0468B
:1024100000B583B06B46DA1D11700121FFF7F0FFA4
:1024200003B000BD10B50023002218210469A047A5
:1024300010BDC04610B50023002219210469A04731
:1024400010BDC046F8B5040016000D00FFF7EAFF06
:1024500040212000FFF7DCFF33002A001721276905
:102460002000B8472000FFF7E5FFF8BD10B50A00CF
:1024700000231521C468A04710BDC04610B50A004E
:1024800000231621C468A04710BDC04610B5130034
:102490000A00C4681721A04710BDC04610B500232C
:1024A00000221821C468A04710BDC04610B5002303
:1024B00000221921C468A04710BDC046F0B583B002
:1024C0006B4606000C00DD1D217819290DD817294F
:1024D0001FD814D1637801212A00300002342B70F8
:1024E000FFF7D4FF21781929F1D9FE2918D1627894
:1024F000292130002A70023400F062F9E4E714293F
:102500000ED9627800233000F7682A700234B84789
:10251000DAE7002300223000F7680134B847D3E738
:1025200003B0F0BD1439C9B2F8B5060014001D009F
:10253000052951D8294B89005B589F460022284B1A
:102540001A700120F8BD264F3B78002B3BD10023A9
:102550003B70F6E72423C25CFF2A01D1873AC254BC
:102560002B002200142130003769B847EAE71C4FDE
:102570003B78002B2DD13000FFF754FF00213000B5
:10258000FFF746FF21003000FFF742FF01233B70B9
:10259000D7E71100FFF73CFFD3E7114F3B78002B43
:1025A00007D013E018213000FFF74CFF183CE4B2CD
:1025B00018352A00182CF5D821003000FFF742FF0B
:1025C00000233B70BDE7FFF735FFC0E7FFF732FFA1
:1025D000EFE7FFF72FFFCEE70020B3E7B875001055
:1025E000310D0020F0B5C64605000F0014001E0096
:1025F00000B50E2941D010D80B294CD00D2950D14F
:10260000002A58D13549FFF759FF2B689A7C2223BD
:10261000EA54012080BCB846F0BD0F2953D1FFF722
:102620003DFF22227379AA5CDB009B18DBB298463F
:1026300040212800FFF71AFF4346190910232800FC
:102640001943FFF713FF414628003940FFF716FFF3
:10265000B023B17928001943FFF710FF3179013C0D
:10266000C90028003268C9B2E4B2FFF70FFF002C9E
:10267000F4D12800FFF71AFFCBE7FFF70FFF812106
:102680002800FFF7F3FE21002800FFF7F7FE2800DF
:10269000FFF70CFFBDE7002A09D11149FFF70EFF34
:1026A000B7E7092911D10F4900F024F8B1E70E4925
:1026B000FFF704FFADE70D49FFF700FF2B68DA7C59
:1026C0002223EA54A5E70020A4E70A29FBD100F061
:1026D00017F828000649FFF7F1FE9AE7F075001099
:1026E00000760010D0750010F8750010E875001025
:1026F00008760010222301608A7CC2547047C046CD
:1027000070B504000023002228214569A847002352
:10271000E568002214212000A847200001224B2157
:1027200000F04EF8236820001A79292100F048F8BB
:10273000200000224B2100F043F8236820001A7982
:10274000292100F03DF8200001224B2100F038F84B
:102750002368292120005A7900F032F870BDC04664
:1027600010B582B06C462371049B6171A271009315
:1027700001226B460F218468A04702B010BDC046FD
:1027800010B50023002209218468A04710BDC0466F
:1027900010B5002300220A218468A04710BDC0465E
:1027A00010B50A0000230B218468A04710BDC04665
:1027B00010B50023002210218468A04710BDC04638
:1027C00010B500234469A04710BDC04670B5002471
:1027D000232504604455033544558461023DFF348C
:1027E0004455043544550361049B8160C2604361D4
:1027F000FFF7C6FF70BDC046D0231B061B68974A73
:102800009900F0B54E46894651585A4253412F22FD
:1028100057464546DE465B4293439846904BE0B5AB
:102820009C4683B000270191E044002939D08D4BAC
:102830000F269B464246FB0808339B009C58012309
:102840003D009A460837002C22D031002140264214
:1028500018D05B464A469A582B00EA40203BDB17CB
:102860001340524613420DD1072208002A4092001D
:1028700090400200EB087C483C339B001A50280033
:10288000019B984724090135002C01D0BD42DCD3BF
:10289000202FCFD103B0F0BCBB46B246A946A0461C
:1028A000F0BD704B00200F229B46C6083300414606
:1028B00008339B005B5801000830002B00D1B2E0C8
:1028C00017001F40BC461A420FD04C465D460F0011
:1028D0002C59203FCC40FF1727400124274204D128
:1028E0006446614F3C36B600F4511E0900D19AE0AF
:1028F00017003740324213D04C1CA4465D464C466C
:102900002C5965460E00EC401F3EF6172640012468
:10291000264205D1EE08544C3C363F01B6003751F3
:102920001E0A00D17FE017003740324213D08C1CC2
:10293000A4465D464C462C5965460E00EC401E3EB2
:10294000F61726400124264205D1EE08464C3C36B7
:102950003F02B60037511E0B65D017003740324298
:102960000DD0CC1CA4465D464C462C5965460E0045
:10297000EC401D3EF61726400124264257D01E0C7F
:1029800051D014003440A44632420BD04C46354E50
:102990000F1D3659FE40B2460E0054461C3EF60F3F
:1029A00026424BD01E0D3ED014003440A446324285
:1029B0000BD04C462B4E4F1D3659FE40B2460E00F2
:1029C00054461B3EF60F264240D01E0E2BD014005C
:1029D0003440A446324212D04C46224E8F1D365906
:1029E000FE40B2460E0054461A3EF60F264206D16D
:1029F0006446FE083C3627061B4CB60037511B0FB9
:102A0000CF1D002B0FD04C465D462E590124FE40B1
:102A10001939C9173140214205D1F908124E3C310C
:102A20001B0789008B51202800D03EE732E7EE08D3
:102A30000D4C3C363F03B6003751A0E76446FF0813
:102A40003C37BE00084F2404F451ABE76446FE084F
:102A50003C362705044CB6003751B6E7880B0020FA
:102A600030410140140D002000400140094A83001C
:102A70009A1810B514684022544080322240064C07
:102A8000C000A44663441A60044B9C466044416005
:102A900010BDC04604C0014004D0014000400140C8
:102AA000074B8000C3181B68C90092000A435A40B4
:102AB0000C231340034A9446604403607047C046A9
:102AC00004C0014004D00140F8B545469846D023E3
:102AD0001B06DE461C689B462B4B57469A46A300B6
:102AE0004E469946E0B5534616004A469B580700A5
:102AF0000D00002B34D04346002B3FD053464A46AE
:102B000041469950D0231B061C6863425C412F222A
:102B10000720634293431D4A38409446FA08110047
:102B2000800085403C311A486344890092000D5072
:102B30009B18002E0ED080229201944663440121FE
:102B40000D201D6000F0AEF8F0BCBB46B246A946B1
:102B5000A046F8BDC0229201944663441D60F3E78D
:102B60004346002BD1D0534641460D2099500022B8
:102B7000084900F0D3F85B461C68C6E70D200549FC
:102B800000F0C6F9BAE7C046880B0020304101408A
:102B900000400140F92700100123D0228340120693
:102BA00093629361094A83009A1811684022514048
:102BB00080320A400649C0008C4663441A60054BC7
:102BC0009C460523604443607047C04604C00140F2
:102BD00004D00140004001400FB400B5084883B064
:102BE00003F0CCFD049B002B07D005A91800019130
:102BF00003F070FC034803F0C1FD012003F082FCE8
:102C0000E46C0010F46C001070B5EFF3108C72B629
:102C10000D4D2B68002BFCD0BFF35F8F0724CB0832
:102C2000C618C05C01230C40A3401C0004400342B2
:102C300007D118433070BFF35F8F2C608CF310887E
:102C400070BD1000FFF7C8FF2C0100D0044A1078B7
:102C5000431CDBB2172B00D9102313707047C046FA
:102C6000BC0100200021044B044ABFF35F8F02C364
:102C70009342FAD17047C046000100D0800100D0D5
:102C8000054B064A1360064A136053609360D36095
:102C900013615361936170478080808000E400E09D
:102CA00004E400E01F2318401E3B8340002905D0A8
:102CB000C021044A490053501360704780220149E3
:102CC0008B50FAE700E100E070B50D00EFF31086DD
:102CD00072B60F4A1368002BFCD0BFF35F8F0D4B09
:102CE00010309B6884001B590B4A934203D09D42CD
:102CF00001D000F0F1FF074B9B681D51BFF35F8FC0
:102D0000BFF35F8F0022024B1A6086F3108870BDFC
:102D1000240100D000ED00E0C1010010F0B55746DD
:102D20004E46DE464546E0B585B0060000911700E8
:102D3000EFF3108B72B66A4A1368002BFCD0BFF316
:102D40005F8F0025674B5D579A46002D00DAA9E09A
:102D50006B00654C01935B199B009846A146C144EA
:102D60004B4652469B7910361370604BB6009B68F9
:102D700099590B1B2F2B33D95D4B994200D0ACE0F6
:102D8000019B42469C465B4B6544AD0063535A4BE6
:102D90000232A218043B9B1A1B05584A5B0D6519A9
:102DA00013436B80564B0121AB80FF23AB71009B1B
:102DB000EF71AB604B460B4319004C4B9B6899512C
:102DC000BFF35F8FBFF35F8F0022454B1A608BF319
:102DD000108805B0F0BCBB46B246A946A046F0BD7F
:102DE00001200A008243D3798C46BB4231D8454644
:102DF000130044491B1B5B415943090D3D4B635371
:102E00003D4B02356519043B5B1B1B053B4D5B0DC0
:102E10002B43AA464D466B800425AC465546E044FC
:102E2000131F44441B1B1B055B0D1D434B4699712F
:102E300000999D8099604946DF71334B01431360CF
:102E4000BBE75800C01880002018C179B9422FD9BB
:102E500002000623D356002BF3DA02932B4B614674
:102E60000393131D9A4604235B429C46E14450465B
:102E70004B461B1A1B055B0D9C46204B95719846D3
:102E80006346404603439380019B5A199200039B7B
:102E9000A418A380029B1C4AA371009B2260E771C7
:102EA000A3608AE700F018FF002553465D574FE7FF
:102EB000908802934005131D9A46031561469C466F
:102EC0004046D444634604302018181AE023000515
:102ED000400D1B0218430390C5E700F0FDFE4FE7CD
:102EE000240100D0320D0020C001002000ED00E0E0
:102EF000C101001000A1FFFFF001002000E0FFFF72
:102F000001BDFFFFAAAA00000148804701BD0000E3
:102F1000F0B5DE4657464E464546E0B50C0083B058
:102F2000EFF3108872B6634A1368002BFCD0BFF32E
:102F30005F8F614B61499A68030010339F00D55938
:102F400000938D4243D0A54254D05D4EAA1B2F2A38
:102F50003DD85C4B9C461B689A4601231A00994653
:102F60008240534613401F2201934B460240934038
:102F70009A468022634650469850BFF35F8FEFF326
:102F800005839B46002B37D0009B5B4501D000F0AA
:102F9000A3FE2A004B469A439068844208D177E00A
:102FA0004B005B189B00F3189868844236D01A00D7
:102FB000062151560029F3DA844255D0019B002B9B
:102FC00027D0C02251463F4B5200995019603A4BCE
:102FD0009B68DD51BFF35F8FBFF35F8F0022354BDE
:102FE0001A6088F3108803B0F0BCBB46B246A9460D
:102FF000A046F0BD0D00EAE72A004B469A439068D0
:103000008442D5D106201056130000280ADA0D009C
:1030100032E0802351462B4AD150D8E7062018567B
:10302000002822DB42001118890074188946A16823
:103030009960E179D971062161569971002925DBE2
:10304000A488F11A640524154C440919E0240905E3
:10305000490D24022143998013181B4A9B001178C3
:10306000F31899711070A9E713005946002914D17B
:10307000FF3191711549918013490A789A71144A68
:103080009B1B5B415A43120D0A7097E71149E2E717
:103090000620105613000028C4DA0F4A0F49D21A2E
:1030A000083A5002400D014399800D4952080A43E5
:1030B000DA8083E7240100D000ED00E0C1010010B8
:1030C000C001002000E100E0320D002001BDFFFF43
:1030D000AAAA000001BD0000FA01002000F0FFFFD5
:1030E00000F8FFFF70B501240443EFF30581EFF30F
:1030F000108C72B6214A1368002BFCD0BFF35F8F8F
:103100001F4B05001F4AED1A6D416A43120D1E4DFB
:103110008900AE6852B27658A6421CD00621595694
:1031200091421CD012215956914222D01E2159564B
:10313000914220D02A2159560324914210D0134B9A
:1031400019781A708171BFF35F8F00220B4B1A60E0
:103150008CF3108870BDAB680D4C5C50EFE7002419
:103160006100091989005B18FF219971094999804B
:10317000E5E70124F4E70224F2E7C046240100D089
:10318000C0010020AAAA000000ED00E0320D0020DE
:10319000C101001001BDFFFF024B9C466144890044
:1031A000016070474000003470B5114C114DAC42C5
:1031B0000FD2FF262368002B0CD0FFF747FD01003C
:1031C0002000FFF7E9FFA680BFF35F8F0834AC4211
:1031D000F0D370BDFFF73AFD01002000FFF7DCFFE0
:1031E0002671BFF35F8F0834AC42E3D3F1E7C046EA
:1031F00050020020580200200A4B1968EFF310809B
:1032000072B60A68002AFCD0BFF35F8F1B68BFF359
:103210005F8F00221A6080F3108840BF00200021D9
:103220007047C046240D0020F0B5DE4657464E4696
:103230004546E0B583B0EFF3058203231340B54A5A
:10324000990052580091904601229A409346B24B01
:103250001A60B24B01935B46B14843634346082270
:103260009B5E9946002B3ADA43469B881BB2002BA3
:1032700000DB9DE043469B79002B00D0E1E0434614
:1032800008241C5F002C20DB43465A6963001B198D
:10329000DB00D3189D68DC686B1C00D103E1A048FB
:1032A000009984466144826A0B69AE1A9B1A9E4259
:1032B00013D35A46036A1A420FD0994800F054FBC0
:1032C0008C4202DCC7D18542C5D940BF03B0F0BCF7
:1032D000BB46B246A946A046F0BD0D61EDE74246A9
:1032E00052695B0092464B44DB009A4453469E6809
:1032F000DF6800F039FB8F42B6DC00D1F8E0002F28
:1033000000DAD9E05246534654691B69019A934248
:1033100000D1CCE0414652460820085E52880004A5
:1033200021001043984704000D0023002B4300D1D7
:10333000C2E0002D00DBDFE030003900001BA941B6
:1033400053469860D96000229A5E002A00DA8BE723
:1033500043465D6953009C18E4002C19A768E46893
:103360008C4200DD80E702D1874200D97CE74646E7
:10337000328108360DE08C4200D1C6E01E000023E9
:10338000F25E002A0ADB53009C18E4002C19A7689F
:10339000E4689B18DB00EB188C42ECDD53461A8086
:1033A0004B46338043469B881BB2002B00DA61E713
:1033B00043461A69EFF3108172B61368002BFCD0F4
:1033C000BFF35F8F43469E88012342465B42938052
:1033D00036B21369BFF35F8F00221A6081F3108841
:1033E000002E00DA46E743465D69083342469C46B4
:1033F0007700BF19FF00EF19BB68604698460823A5
:10340000D15E9246FC68002907DA0EE0A24246D05F
:1034100018000023C15E002906DB4B005B18DB00AF
:10342000EB18DA68A242F1DD524606800023FE5E08
:103430003980002EDCDA904643469B79002B00D180
:103440001DE7002342469371434646460821595ED4
:1034500008364B1C00D138E747468946556902E0DB
:1034600006004B1C18D04B005B18DB00E8180A0064
:103470008C46E95E43881BB2002BF1DA01235B42E4
:10348000DC178360C4604A4503D031803B890380E8
:103490003A81E1464B1CE6D1B8464C46F2E69A68C2
:1034A0004245B5D9C0E7631C00D0F8E605E7200027
:1034B00023699847002825D1534642461B8813812B
:1034C0001269EFF3108372B611680029FCD0BFF3C4
:1034D0005F8F4246514652880A8042464946518093
:1034E0001269BFF35F8F0021116083F31088BBE680
:1034F000864200D803E7B7E6094800F035FA00191C
:1035000069411DE7656824680FE7874200D835E701
:1035100044E7C046040D00203C70054029320010ED
:103520000040054070B52E4C2569002D04D00A21BD
:103530002C48FFF731FE70BD2B4E0321300000F008
:1035400009FAE660FFF782FB284B03229C46D02352
:1035500022701B061B6801216370254B6044A36029
:103560000F23800020610220638063694942A180AB
:1035700019800231198647311D83585218315A5229
:1035800075325C3999521832013199521832013131
:103590009952183201319952083518329D52023130
:1035A0001832995218320131995218320131995218
:1035B00018320131995218320131995218320131C1
:1035C00099520C4B0C49DC6001303562FFF77CFBF3
:1035D00001210320FFF766FB084B1D60A7E7C046EB
:1035E00008020020240D0020004005404000003467
:1035F000FFFF1000040D0020293200103860054044
:1036000070B501000469EFF3108C72B620680028D1
:10361000FCD0BFF35F8F02200D5E4C69680040193B
:10362000C0002418002D37DB208848800869BFF3CC
:103630005F8F002606608CF31088E360638804982F
:10364000013320615B0405985B0CA26060611A1C69
:10365000002B1FD093B22804628018430A69EFF34D
:10366000108C72B61368002BFCD0BFF35F8F8B8871
:1036700023808D800B69BFF35F8F00221A608CF36B
:1036800010880B7801329A40CB6808498C46634415
:103690001A6070BD0122DDE70B69BFF35F8F002266
:1036A0001A608CF3108801204042F2E73C200000B1
:1036B00010B543890A1493421ADD53009B184269DE
:1036C000DB00D3180469EFF3108C72B62268002A6D
:1036D000FCD0BFF35F8F5A88090494B2090C8A4268
:1036E00008D00369BFF35F8F00221A608CF3108843
:1036F000002010BD8022120214435C800123026965
:103700008371BFF35F8F002111608CF3108804492F
:1037100002788C469340C268012062441360E8E757
:103720003C200000F0B504000D0006267642F71795
:10373000C64636196F4100B582B08F4214D811D0F9
:1037400000F01AF932003B00121A8B41002B17DCF3
:10375000002B47D02000290000F018F902B080BCEF
:10376000B846F0BD8642EBD90022002316001F00A8
:1037700000F002F932003B00121A8B41002BE7DD0A
:1037800000F0FAF832003B00121A8B41002B0ADBE2
:1037900000230193154B3200009315483B00FFF7BF
:1037A0002FFF0028D6DB00239C46B046114A124E5C
:1037B000736A9F4204D8B16A8845CBD99F42C9D168
:1037C0001168EFF3108072B60B68002BFCD0BFF3CA
:1037D0005F8F1368BFF35F8F6146196080F31088B5
:1037E00020BFE5E7002AB5D0CAE7C046F93100108E
:1037F00008020020240D00200040054070B50400A0
:103800000D0000F0B9F88023001969411B069942A8
:1038100002D3012002494042FFF784FF70BDC04639
:10382000FFFFFF7F70B5060000F0A6F8FA22040043
:103830000D00002330000021920001F0BBF980232D
:10384000001969411B06994202D3012002494042F6
:10385000FFF768FF70BDC046FFFFFF7FF0B5D6469B
:103860004F464646C0B504000D0082B0EFF3058711
:103870008946002F0ED0344900204B6AAB4203D357
:103880008A6A0130A24226D302B0E0BCBA46B146F1
:10389000A846F0BD2D4B9846DB689A4643465046F5
:1038A0001E7800F061F80B00514602000436B600A5
:1038B000715820008E1A2900801A99418F4211DC1C
:1038C0000ED020BF204A0020536A4B45DCD3926AB9
:1038D0000130A242D8D25B1B5A1E9341D8B2D3E723
:1038E0008642EED900F048F822002B00121A8B41D4
:1038F000002B1ADB00230193154B22000093404656
:103900002B00FFF77DFE011E0FDD0F4B5A6A4A4563
:1039100017D39B6AA34212D34046FFF7C9FE0A4A57
:103920000020536A4B45AFD3D1E7074A0020536AC2
:103930004B45A9D3926A0120A242A5D2CBE74A45C2
:10394000EAD120BFE8E7C046004005400802002059
:10395000F931001010B5024A0248FFF755F910BDC1
:10396000F86C0010900B00200300416A0A00986A6E
:10397000596A8A42FAD17047034B596A0A00986A19
:10398000596A9142FAD1704700400540064A536A8D
:103990009942FCD807D1044B02E05A6A914202D105
:1039A0009A6A8242F9D3704700400540F8B5DE4676
:1039B0004E4657464546E0B58B4605000A99180025
:1039C000160000F0DBFA0A9B6C001F02324B6419F0
:1039D0009C46A4006444636881469F4200D96760A6
:1039E0002B1FDBB29846012B30D9C02380229B01CC
:1039F000E31812011A60294BAD0059599A46002963
:103A00001BD17301E026226853401E4080234246AA
:103A10005B01E3181E60012A30D9802380229B01BC
:103A2000E31812011A6053464A4667605A51F0BCC7
:103A3000BB46B246A946A046F8BD586900F09EFABA
:103A4000013043001B18033BFDD2DAE75B46012B34
:103A5000CBD1C02303229B01E3181A60023AA3686A
:103A60001A42FCD07301E0262268AD0053401E408C
:103A700080230A4A5B019246E3181E605A46216879
:103A8000514003220A401A6001225B469A40A36813
:103A90001A42FCD0C1E7C04600800040940B0020D1
:103AA000F0B546464F46D646C0B51F00344B4400DD
:103AB0009C462418A4006444636888461600FF2BC3
:103AC00002D880235B006360031FDBB29A46012BA0
:103AD00030D9C02380229B01E31812011A60294BC0
:103AE00085005959994600291BD17301E0262268A7
:103AF00053401E40802352465B01E3181E60012A9A
:103B000030D9802380229B01E31812011A608023A0
:103B10005B0063604B465F51E0BCBA46B146A846C5
:103B2000F0BD586900F02AFA013043001B18033B2E
:103B3000FDD2DAE74346012BCBD1C02303229B0100
:103B4000E3181A60023AA3681A42FCD07301E02617
:103B50002268850053401E4080230A4A5B0191463B
:103B6000E3181E6042462168514003220A401A6051
:103B7000012342469340A2681342FCD0C1E7C046ED
:103B800000800040940B0020014B8000C05870471B
:103B9000940B0020F8B5040021481E0017000D000A
:103BA00000F0ECF90100380000F0E8F9069B36045B
:103BB0001B031E432368002B20DB1A4B1A49E31812
:103BC0005A1E93418022920194465B421B0B174A76
:103BD0001B0363441360164A13601F000A6897436F
:103BE000FBD1144B2560E2182123A06013602368E9
:103BF000002BFCDA0823E6601360F8BD3F2322683F
:103C00001340AB42D9D1A3681B051B0D8342D4D10D
:103C1000EE22E368D2021340B342CED1EDE7C046B4
:103C2000001BB7000040FDBF08C0004000E000409E
:103C300000F00040043000008023024A9B000B4348
:103C4000D362704700800540142310B50100188826
:103C500004331B88984710BD162310B5010018883F
:103C600002331B88984710BDF8B54746CE4680B54D
:103C70000F1E19D014239946043304000025012691
:103C800098464B461888434621681B88984701C4CC
:103C9000431E9841013540420640AF42F1D1300009
:103CA000C0BCB946B046F8BD0126F8E7AA23064ACB
:103CB0001B0113608D235B00D3600449044B196022
:103CC0005368002BFCDA70470040024000B0FA0055
:103CD000006002407047C04610B50148FEF77CFF07
:103CE0001C6D001070B5074D074EB54209D2002477
:103CF000013E761BB60808CD984723000134B34235
:103D0000F9D170BD186B0010546B0010054B064ABA
:103D100006491A60064A074B1A6010000B68984360
:103D2000FBD1704700E00040BFCDFBFE08C0004063
:103D3000FE7F3C0000F00040044BDB6C002B03D105
:103D40008022034BD2021A607047C0460000115017
:103D50004C201150044A054B1A60054A1368DB01D8
:103D60008033FBD17047C046FFFFFF0100F00040E9
:103D700008C000404022034B9A675A671A67DA6608
:103D80007047C04600F0014010B5FEF76BFF10BD54
:103D9000F8B52749274C284D641AA6103200302E5A
:103DA00000D930222800920000F0F8FFBC2C3BD84C
:103DB00030202F232C196407204A801BE40F9B1B03
:103DC000052B16D93700002C02D0B300771CEA501F
:103DD000001B33199B004108EB18C900C9181A6071
:103DE0005A6008339942FAD1012303421CD0984308
:103DF000C619B300EA50731C2F2E15D09B00EA5051
:103E0000B31C2E2E10D09B00EA50F31C2D2E0BD08D
:103E10009B00EA50331D2C2E06D09B00EA50731DE8
:103E20002B2E01D09B00EA50054B9D60F8BDC0468B
:103E300000010010C001001000000020C1010010AE
:103E400000ED00E0002310B5294C82B0A367FFF716
:103E50002DFF0122274B1A60636C012BFCD103223A
:103E6000254B1A60224A936B012BFCD1013300933E
:103E70000121224A22480433FFF78CFE0523012149
:103E80000093204A2048FFF785FE002202210420EB
:103E90001E4BFFF705FE0022012105201C4BFFF7FA
:103EA000FFFD0022002107201A4BFFF7F9FD002239
:103EB00000210820174BFFF7F3FD8023DB00009360
:103EC000002200210920134BFFF770FD0022104B48
:103ED00000210620FFF7E4FD0420FFF755FE0E4900
:103EE00000F04CF801000020FFF7A6FE02B010BD64
:103EF000008000403CB0004030B00040002F6859C6
:103F000000800240008C864700C00240001BB700C2
:103F100040597307006CDC0240420F000148042145
:103F2000014B184720020020693C0010124A936F91
:103F30009B0815D29066D166002905D0FFE7FFE700
:103F4000FFE7516F106F704704B580210906C21753
:103F50005140002800D0C84302F0CEFD002104BD2E
:103F6000F0B5146E556E576F166FFFF7E3FF1466CA
:103F7000556657671667F0BD000000D0114A936F71
:103F80009B0813D210665166002905D0FFE7FFE7B2
:103F9000FFE7516F106F704704B5002801D0002073
:103FA000C04302F0A9FD002104BDC046F0B5146E67
:103FB000556E576F166FFFF7E5FF14665566576726
:103FC0001667F0BD000000D094464A4A926F9208EE
:103FD000624601D228E0C046F0B5464E346E756E9A
:103FE000776F366F00F020F89446424A14665566A3
:103FF000576716676246F0BD94463E4A926F920834
:10400000624601D254E0C046F0B53A4E346E756E49
:10401000776F366F00F04CF89446364A1466556652
:10402000576716676246F0BD002B24DB11D00029CC
:104030003EDA00B5C943404200D1013100F038F802
:10404000C943404200D10131DB43524200D1013328
:1040500000BD002AEBD1002801D1002905D00020A5
:10406000C90FC90701D1C043410800B502F03CFDAA
:104070000022002300BD00B500290ADBDB435242C9
:1040800000D1013300F014F8C943404200D101319E
:1040900000BDC943404200D10131DB43524200D14F
:1040A000013300F005F8DB43524200D1013300BD7B
:1040B000002923D1002B18D1002A0CD0BC460D4F6B
:1040C00038667A6600210023FFE7FFE7FFE77A6F93
:1040D000386F67467047002801D00748010000B5D7
:1040E00002F002FD0022002300BD02000B000020B0
:1040F00000217047000000D0FFFFFFFF002B00D021
:10410000BFE0130C28D1002AE7D080B4114F3966E4
:104110007A66FFE7FFE730B4040C7B6F396F1B044E
:1041200023433B667A66FFE7FFE7FFE7C04684B2BA
:104130007B6F3D6F1B0423433B667A66FFE7FFE717
:10414000C04600232C042D0C7A6F386F001969418A
:10415000B0BC7047000000D0F0B594460025140EA6
:1041600001D112020835140F01D112010435940F48
:1041700001D192000235D40F01D152000135D40B88
:104180000134254F7C66254C3C660E0C93B2FFE74C
:10419000FFE7FFE73C6F6643360C7703BE46734389
:1041A000DF0B5B04C01AB941130C7343DB18C91A47
:1041B000CE086643360CB64493B273431F0F1B01FF
:1041C000C01AB941130C73431F0B1B05C01AB94128
:1041D000860D8F023E436643360C092D24DB520ABE
:1041E0007243801A7703460A6643360C16235B1B1C
:1041F000DE40DF40BF1964466643821B70460435CB
:1042000006330100D940A840C01900D30131A242B1
:1042100006D20023F0BD0000000000D0FFFFFFFF2A
:10422000121B0130F3D3F1E709277F1BFE406446E0
:10423000A2B27243801A00D20139220C7243130CCD
:104240001204821A99410B0070460435133701009D
:10425000F940A840801900D30131002B02D1A242BD
:104260000AD2F0BD013000D30131121BFAD2013B5A
:10427000F8D1A24200D2F0BD013000D30131121BAF
:10428000F7E7F0B51C0C00D080E00CB400251C0A48
:1042900004D11B02160E3343120208351C0B04D145
:1042A0001B01160F3343120104359C0B04D19B00F4
:1042B000960F334392000235DC0B02D192185B411A
:1042C00001351C00971864410134464F7C66464C0A
:1042D0003C660E0CFFE7FFE7FFE7C0463C6F664316
:1042E000360C7703BE4697B27743C01B00D2013924
:1042F000C01B00D201399FB27743C91BC91B170CE1
:1043000077437E04FF0B801BB941CE086643360C11
:104310000C2D33DBB644120B1F053A431B0B97B22F
:104320007743C01B00D201399FB27743C91B170CDA
:1043300077433E043F0C801BB941860D8F023E43FC
:10434000664329277F1BFE400C3D7746AF40BF19CF
:1043500030BCA2B2ABB272437343801A9941220CB3
:104360007243130C1204801A994102000B000137AA
:10437000001BA941F9D2781E0021F0BD0C277F1B3C
:10438000FE4077467F0BAF40FF19E0E700245D1C3D
:1043900007D0144F7D663966FFE7FFE7FFE7FFE7C9
:1043A0003C6F95B29EB265436643401BB141150C0C
:1043B0001E0C6543664336042F0C3E432D04401B00
:1043C000B141994204D202000B0020000021F0BD4F
:1043D00001D19042F7D3801A994101349942F2D326
:1043E000F6E70000000000D0FFFFFFFF484041401B
:1043F000484018B41B4B5B68FC46019308BD04DFC2
:104400008746001018B4174B1B68FC46019308BD83
:1044100000DF914600109446134A926F920809D229
:10442000624618B40F4BDB68FC46019308BD0CDFF5
:10443000494900100C4AF0B5146E556E576F166F4F
:104440006246FFF7EEFF084A14665566576716671F
:10445000F0BD18B4034B9B68FC46019308BD08DF10
:10446000ED470010D8030020000000D0FFB55040F9
:104470004240504059404B40594000E0FFB5154F75
:104480004C00640D03D0BC4204D10C0314D80020AE
:10449000090D09055C00640D03D0BC4204D11C0366
:1044A0000AD800221B0D1B0501264B4009D44B40A6
:1044B00003D58B4200D18242FFBD9942FCD190428C
:1044C000FFBD0B43DB1803431343F5D0C943491821
:1044D000FFBD0000FF07000000B5FFF7CFFF8041E0
:1044E00000BDC04600B5FFF7C1FF01D9002000BDE7
:1044F000012000BD00B5FFF7B9FF804100BD0120DC
:1045000040054A00121804D85A00121801D8002099
:1045100070470120704700000021002805D1704736
:10452000C1174840401AFAD0C90713B5064B1B689B
:1045300098470CBC441CA2401005120B0349091BF0
:1045400009051943114310BD200D00201F04000070
:1045500010B54C00620D8023D218DB00D21A5B0527
:104560007E2A10DD9E3A13DACC1709034908194355
:104570005242D140640001341532202A05DAD0407D
:104580000843604310BD002010BD0846604310BDC5
:10459000C80FC018013810BD18B4044B5B6AFC4644
:1045A000019308BD24DFF94A00100000D803002061
:1045B000132370B51D78012D19D014DD1F48FFF7A6
:1045C0004BFB06001E48FFF747FB1E4C80223100C4
:1045D000200000F0E3FB022D2DD01B48FFF734FB39
:1045E0001A4B186070BD1A4B164CA364F5E7184BB4
:1045F000144C23606360A360E36023616361A36183
:10460000E36123626362A362E36223636363A36380
:10461000E36323646364A364E36423656365A36560
:10462000E36523666366A366E36623676367A36740
:10463000E367A364D1E7064BA364CEE753440000CD
:1046400053460000D80300204C330000200D00200A
:104650005546001007B5604601880A0A0230DF2A75
:10466000FAD1C9B2820804D30288408800041043FA
:1046700000E00068014A5050039007BDD8030020B5
:104680000FB403BC0CBCF0B50124E407634000E0A8
:10469000F0B50C0DCF0F661E3605891B640503D3DC
:1046A000C943404200D30131640D03D0661CF60AB1
:1046B00007D0E41B00207F00791C89078912803C09
:1046C00024031D0DDF0F6E1E36059B1B6D0503D3E6
:1046D000DB43524200D301336D0D03D06E1CF60A4A
:1046E00007D0ED1B00227F007B1C9B079B12803DA7
:1046F0002D032F1B661B58D4A446202E46DA2037E4
:104700001400BC401D00BD40F24033412A438018D4
:104710005941CB0F05D0C943C043002264425041E8
:10472000514162464D0D28D10D0D07D100281FD0F3
:10473000241940414941013A0D0DF9D0640006D3D6
:10474000013000D30131002C01D140084000013A72
:104750000BD4941CE40A04D112051144DB0719445C
:10476000F0BDD907204B194300E0D9070020F0BD68
:104770000029DDD1002CDBD1F0BD0132C607400895
:10478000CD0728434908002EE1D0D9E73C2E29DA8D
:10479000203E40371400BC4000D00124F2401443B6
:1047A0001A00BB401C43D317ACE7AC46202F08DAF5
:1047B00020360400B4400D00B540F840394128438C
:1047C000A5E73C2F0CDA203F40360400B44000D06F
:1047D0000124F84004430800B1400C43C117EAE744
:1047E00010001900002494E70000F07FF0B50C0DD4
:1047F000661E3605891BE60A6405640D02D0651C39
:10480000ED0A04D0002001210905803C2403A446C0
:104810001C0D671E3F05DB1BE70A6405640D02D013
:10482000651CED0A04D0002201231B05803C2403F3
:104830007740644497B484B296B27443070C7E43C5
:10484000150C6F4380B26843361802D30120000470
:104850003F183004350C00197D41844688B29AB265
:1048600050430C0C62431F0C7C438EB27E43921962
:1048700002D301263604A4191604170C3618674112
:1048800001BC81B29AB25143040C62431B0C5C43DD
:1048900080B25843121802D30120000424181004D7
:1048A000130C401863412D185E410020474106BC9F
:1048B00088B293B258430C0C6343120C544389B230
:1048C00051435B1802D301210904641819041A0C1E
:1048D000091862416D1856410020474118BCF90281
:1048E000720D1143F0026A0D1043ED020A0D03D15F
:1048F0006D1940414941013B124E9B1B7600B3426A
:104900000ED26D0007D30130002671416646354353
:1049100001D1400840001B05C918E4072144F0BD3F
:104920000BDA013306D1013004D101314F0D01D032
:104930004908F2E7E1070020F0BD0136310500200B
:10494000EBE70000FF030000F0B51C0D671E3F05FC
:10495000DB1BE70A6405640D02D0661CF60A04D06E
:10496000002201231B05803C2403D0252D060026B0
:10497000F6432E661E096E66CE0FF619B446490040
:104980004F0D02D07E1CF60A03D000200021403FCC
:104990003F033E1BB600B444013F7F05C91B4908D5
:1049A0002E6F013676089C02950D25437543ED1355
:1049B0007543AD1301356D10F603761B0CB4CC02B4
:1049C000450D2C43A2B2B3B25A43270C7B43350C9E
:1049D0006F43A4B26C431B1902D3012424043F1972
:1049E0001C041D0CA4187D4124196D41009A91B23C
:1049F000ACB26143170C7C432B0C5F4392B25A4319
:104A0000A41802D301221204BF182204230C521846
:104A10007B41019C6C431B19520ED9010A4344018E
:104A2000A01A81B2B2B2514303145A43360C7343F5
:104A300087B27743D617D21900277E4136049B19D7
:104A40001704160C7F185E417316ED18F30100264B
:104A500080337541A90F06D16400690AE8055B0A35
:104A6000184309D22FE00422944480337541A90AE7
:104A7000A8059B0A184326D3404149412404009AC3
:104A8000019B0D005543641B4343E41A95B286B263
:104A90007543170C7E43030C5F4392B25A43B6181A
:104AA00002D301221204BF183204330C52197B4185
:104AB00052429C41002C02D4002201305141400856
:104AC000CA071043490802B06246D7079210084B44
:104AD000D218084B9A4203D212058918C919F0BDA1
:104AE0000020002A01DC3900F0BD01331905F5E78B
:104AF000FD030000FE070000002200B5203200F098
:104B000004F8080000BD000000220B150AD410B5FF
:104B1000944600F031F81414013400DA0021CB1768
:104B2000144C20470020002170476244343A0CD4D2
:104B30000C2A07DA04009140904052422032D440BF
:104B4000214310BDD843D94310BD203207D40C46B1
:104B50009440524220321141D040204310BD080001
:104B6000C917203203D452422032104110BD180020
:104B7000190010BD2B4B00100A0DCC0F531E1B0546
:104B8000C91A520503D3C943404200D30131520D23
:104B900003D0531CDB0A07D0121B00206400611CE9
:104BA00089078912803A1203014BD21A704700001C
:104BB000FF03000051434343C9188C46110C83B2D4
:104BC0004B4310B4040C614392B280B25043624331
:104BD0001C041B0C001910BC59411304120CC01802
:104BE00051416144704700004840414048400E4BED
:104BF0005B6818470C4B1B6818470C4A936F9B085F
:104C000002D2094BDB681847F0B5146E556E576F2A
:104C1000166FFFF7F6FF054A146655665767166765
:104C2000F0BD014B9B681847D8040020000000D05D
:104C300007B548404140484001E0C04607B5420042
:104C4000120E03D0FF2A03D1420218D8C00DC005AE
:104C50004A00120E03D0FF2A03D14A020FD8C90D11
:104C6000C9050122414005D4414001D5814207BD1B
:104C7000884207BD0143491801D0C043001807BD51
:104C800000B5FFF7DBFF804100BDC04600B5FFF770
:104C9000CFFF804100BD491A002807D10846704760
:104CA000C10FC90700D54042002817D0F44603B40D
:104CB0000B4B1B68984706BC81409E3840428031B0
:104CC00007D20B0607D04900490AC0051043084324
:104CD00060470130F8E7490A8902F5E770470000AC
:104CE000200D0020014B5B6A18470000D80400200B
:104CF000132310B512481C78FEF7AEFF0100012CFB
:104D00000AD003DD80220F4800F048F80E48FEF775
:104D10009BFF0E4B186010BD0A4C5422200000F07F
:104D20003DF80B4B6365A365E36523666366A36685
:104D3000E36623676367A367E3672362E361E5E7ED
:104D400053460000D80400204C330000200D002002
:104D5000554D001007B5604601880A0A0230DF2A67
:104D6000FAD1C9B2820804D30288408800041043F3
:104D700000E00068014A5050039007BDD8040020AD
:104D800001480421014B184730020020693C001003
:104D9000014B1B681847000030020020014B5B6884
:104DA00018470000300200209A4200D28854704711
:104DB0007047C046F8B55746DE464E464546E0B514
:104DC00099460A9B07009A460D9B884693460B9C82
:104DD0009B073BD10C9B9C423DD21E1B0B941500A4
:104DE0000C005E442A004B46013521002020B847C4
:104DF000B542F7D1A0460B9C002C20D04546361971
:104E00005346321B013C185D29004B46B847002C25
:104E1000F6D12B00350098460D9B9B070FD55B46BE
:104E2000EC1A0C9BA3420AD9464698462A004B46E8
:104E3000310020200134B84701354445F6D328001D
:104E4000F0BCBB46B246A946A046F8BD1600150008
:104E5000002CD3D1E0E71600002CCFD11500EEE7EF
:104E6000F0B54F464646D646C0B584B098460EAB20
:104E70001B7894469946129B0D9C109F119E9A0791
:104E800025D4002E65D1BC4221D201221A4092467F
:104E9000202C00D1E9E00C9A551E302202E0202C93
:104EA00000D17BE001342A55A742F8D85246002AA7
:104EB0000DD0B4420BD20C9A551E3022202C02D1B8
:104EC00071E0202C2DD001342A55B442F9D1DA06F4
:104ED0003CD55A052ED4002C28D10F9A102A00D187
:104EE000B6E0022A00D1BCE030220C9C22700124E2
:104EF0004A46002A65D15A0700D499E02B220C9D1E
:104F00002A55013403930C9B624600930296434654
:104F10000194FFF74FFF04B0E0BCBA46B146A84683
:104F2000F0BD2024DA06EDD55A0503D4A74266D099
:104F3000B44264D00F9A102A71D0022A57D0202C84
:104F4000E0D02200013430250C9FBD54202CD9D054
:104F5000CEE7012215001D40AA461A4236D04A4625
:104F6000002A4AD10C321A4247D1BC42A1D2202C8D
:104F700091D1202E17D82024DA06C3D55A051BD488
:104F8000202F01D0202ED5D11F220F9D102D6FD0A4
:104F9000022DD8D162250C9FBD54D0E75246002A7D
:104FA00079D0202EBDD92024DA06ABD55A0503D4FA
:104FB000202FE9D0202EE7D00F9A102AA2D120244A
:104FC000A0E72D220C9D2A5501349BE7BC4200D35B
:104FD0007DE7202C00D05EE7DA06F0D55A05EED446
:104FE000202F62D0202EEAD134001F22CDE7202CC2
:104FF00000D187E722000134CCE7013EB5E7621E0D
:10500000012CC2D10F9A102A00D06AE79A063BD52C
:1050100058220C9C2270283A6270022468E79A0693
:105020000ED4202CCBD078220C9D2A55013486E753
:105030001A0700D466E720220C9D2A55013461E747
:10504000202CBCD058250C9A12191570013476E723
:105050009A0608D558220C9C2270302262700224D5
:1050600046E76032F7E77822F5E7002A83D1B3E715
:10507000A21E013C9D0603D478250C9FBD5460E719
:1050800058250C9FBD545CE778220C9C2270483A4E
:10509000627002242CE7DA0600D433E75A058BD479
:1050A000202F00D044E71F226FE73C001F226CE74F
:1050B00010B5002800D110BD01F014FBFBE7C0467D
:1050C000F0B557464E464546DE46E0B599B08246B5
:1050D000894690460893229A239B10001900FFF7F7
:1050E0000EFA002800D0CDE0229823990122D94B56
:1050F0005242FFF7FFF9002800D0C3E0229823991D
:105100000122D54B5242FFF7E7F9002800D0B9E061
:105110002298239900220023FFF7DEF9002800D00F
:10512000F1E1229E239F8023269ADB001A400D92F4
:10513000269A1A4201D1062324938023269A1B0122
:105140001A403B0093460996334300D0B3E0002A4F
:1051500000D0C2E1002300240A930B94002304250D
:105160000993259B0024AB4200D95C1B0223269A9D
:105170001A400C92269A134203D06B426B415B4259
:105180001C40099B002B07D00A9A0B9B300039006A
:10519000FFF741F906000F0022982399002200230F
:1051A000FFF79AF9002803D0802109067B181F0019
:1051B000269AAA4B009601971340089E0493249BBD
:1051C00003940293424633004946504600F0AAF940
:1051D0000400002D67D02020269A49460240130083
:1051E0005A4253415B42621C18400A92330022002B
:1051F0004530D047099A6F1ED317D4185C40D30F9F
:105200009B46002501E0202D13D008AA94461F23B9
:10521000200063440A2101355E19FEF7AFFE3031EC
:10522000317020000A21FEF7A9FE26000400092E95
:10523000E9D805230693002304930A3303935B46BE
:10524000089E029310AB0A9A0093494633005046D9
:1052500005970195FFF704FE0C9A0400002A22D05E
:105260004246851A259AAA421DD9B04657461600CD
:1052700022004346494620200135B8470134AE425A
:10528000F6D810E0269B42460493259B494603939B
:10529000249B50460293229B239C00930194089BDD
:1052A00000F040F90400200019B0F0BCBB46B24643
:1052B000A946A046F0BD6A4B78009C46400D60446C
:1052C000FFF72EF9674A684BFFF7C3F8674A684B48
:1052D000FFF798F8674A3B031B0B1A4304000D00C5
:1052E00009981100644B0022FFF783F8634A644B6E
:1052F000FFF7AFF802000B0020002900FFF782F84B
:10530000FFF726F90990FFF70BF95E4A5E4B0400A0
:105310000D00FFF79EF800225C4BFFF773F8FFF7D4
:1053200017F95B4A5B4B29000C902000FFF791F8BE
:1053300004000C980D00FFF7F3F8574A574BFFF79E
:1053400088F802000B0020002900FFF752F8040043
:105350000D0002000B000A940B95FFF77AF8040089
:105360000D000A980B9902000B00FFF74BF8002282
:105370000E900F914A4B20002900FFF74CF80022B5
:10538000484BFFF73FF802000B0020002900FFF711
:1053900042F80022444BFFF735F802000B002000D2
:1053A0002900FFF738F80A9A0B9B0D0080210400B2
:1053B000C9050020FFF71DF802000B00200029009E
:1053C000FFF720F802000B000E980F99FFF723F863
:1053D0000022284BFFF716F8344B0C9C9C46644483
:1053E00023050022FFF735F804000D0002000B0032
:1053F000300039000A940B95FFF76EF800285DD154
:1054000023002A00C625099963318D42AD415946D2
:105410006D420435002900D1A3E6134363D0300068
:105420003900234A234BFFF75DF8002807D00022FC
:1054300030003900204BFFF74FF8002853D1249B50
:10544000002B00D18DE60D9B5A1E9341249AD31A4E
:10545000249386E6FFFFEF7FFFFFEFFFFFF7FFFFDD
:1054600001FCFFFFFB799F501344D33FB3C8608B0F
:10547000288AC63F0000F03F0000F83F61436F6399
:10548000A787D23F71A379094F930A400000E03FFC
:105490001655B5BBB16B0240EF39FAFE422EE63F1E
:1054A00000002C400000244000001840FF030000D2
:1054B0002D431CEBE2361A3F80842E41099B0022CB
:1054C000013B09932000164B2900FEF7A4FF0A00B8
:1054D000010003000A910B9294E7002300240A9331
:1054E0000B9400230993249A099B9A4214DDD31A42
:1054F000013B24938023269ADB001A4300230025D6
:10550000269209932DE6802212069446229B1E00C5
:10551000239B63441F0006E600232493EAE7C0466A
:1055200000002440F0B54546DE464E465746E0B5FD
:1055300095B08B46904699461E9A1F9B0A9019007B
:105540001000209DFEF7DBFF002800D0B0E11E9880
:105550001F990122C74B5242FEF7BEFF002800D020
:1055600037E11E981F990122C34B5242FEF7C2FF3A
:10557000002800D0A7E01E981F990022BF4BFEF71D
:10558000B9FF002800D088E01E981F990022BC4B6C
:10559000FEF7A2FF002800D07FE01E981F9900228E
:1055A0000023FEF799FF002800D0FAE000230B93B8
:1055B0008023229C229ADB001C401A4200D102E187
:1055C000092D00D87CE106A98C462C001722002367
:1055D0003021093C62440133D154EF1A202B00D111
:1055E00032E1A342F7D10022A44B069207931E9802
:1055F0001F99FEF7ADFF0500FEF792FF02000B00BA
:105600001E981F99FEF7F5FE069A079BFEF721FFED
:1056100008900991FEF7C0FF0600FEF77DFF02002B
:105620000B0008980999FEF7E4FE0022954B0890BC
:105630000991FEF75FFF002800D1D2E0013630006B
:10564000FEF76AFF069A079BFEF74CFF002801D081
:1056500000260135AA46002F00D098E02800FEF76A
:105660005FFF02000B001E981F99FEF7C2FE854BDC
:10567000002206000F00FEF72FFF0CAB9A46002811
:1056800045D10022300039007E4BFEF733FF002861
:105690003DD1EB073BD5013539E0229B42460493CF
:1056A000219B594603930A981E9B1F9C02950093C9
:1056B00001944B46FFF704FD15B0F0BCBB46B24663
:1056C000A946A046F0BD229B5B0767D403226E4B20
:1056D00022990192039121990291009342464B46EF
:1056E00059460A98FFF766FBE6E706AA9446172391
:1056F000280063440A2101341E19FEF717FC3031DB
:10570000280031700A21FEF711FC051E76D0202CEE
:10571000EBD10323229A1340012B1DD1219B002B97
:105720001AD00B9B002B00D0BBE0229A0C33134203
:1057300000D0B6E0219BA34200D887E006AB9C4690
:1057400017223023624404E02199013413558C421E
:1057500059D0202CF8D12024229B01940393219B23
:1057600002935346B9E706AA944617230A216344D5
:10577000300001341D19FEF701FC30312970300072
:105780000A21013FFEF7FAFB092E46D90600202C1C
:10579000E9D155460CAB20249A46B8E704223B4B8E
:1057A00096E71E9A1F9B00200021FEF722FE012390
:1057B0000B938023229C229ADB001E901F911C4099
:1057C0001A4200D0FCE60022314B062706920793CE
:1057D0000DE7229B0393219B0293042301932D4BFE
:1057E0007BE7002208980999264BFEF775FE0028F2
:1057F00000D02FE7002E4FD101362BE70323229A4A
:105800001340012B66D0202CA6D00B9B002B1FD061
:105810002D235246135501349EE75546202CB9D00E
:1058200030233A19002F08D0172006A9013409188F
:105830000B55202CAED09442F6D10CAB9A462E23B9
:1058400052461355013462E72024CCE6202C83D045
:10585000229B5B0708D4229B1B0700D47CE72023F4
:1058600052461355013477E72B2352461355013422
:1058700072E7C046FFFFEFFFFFFFEF7F65CDCD4131
:1058800065CDCDC10000E03F786D0010706D001057
:1058900080842E41806D0010F30700D4DAE60136D3
:1058A000D8E6219B013B2193A34200D946E7AAE712
:1058B000229B0393219B029303230193074B0CE745
:1058C000074BEA009B185C681B682F00069307943F
:1058D00000248CE6219B002B95D022E77C6D0010E4
:1058E00030780010F0B55746DE464E464546E0B5E6
:1058F000A5B01F002E9B91460D93CA4ACA4B824603
:105900008B461A60002900D129E200233878984696
:10591000002800D12BE2C54B44460C93C44B55469E
:105920004E460E930AE0631C984622003300594607
:10593000A84744463878002800D187E00137252859
:10594000F1D108239A46043B9946023B9846013B15
:1059500000229C460B943878791C0300203BDBB274
:10596000102B03D80C9C9B00E3589F460300303B50
:105970000B9C0B92092B3AD9002398462A2800D178
:10598000DDE000239A462E284BD00300683BDBB2B3
:10599000122B1ED80E9A9B00D3589F4663460F00C9
:1059A0001A43D8E743460F001A43D4E74B460F008B
:1059B0001A43D0E710230F001A43CCE753460F00D9
:1059C0001A43C8E780235B000B9A78781A430B923E
:1059D00001310F0067284FD82428A4D90300253BA4
:1059E000DBB2422B9FD893499B00CB589F460023A4
:1059F00098460B9B47469C4600E00131BB00DB19F3
:105A00005B001F180878303F0300303B092BF4D9A6
:105A100063460B930023B8469A460F0001312E28A7
:105A2000B3D180200B9AC00002430B923022524225
:105A3000944678780B0084446246092A00D8AAE18B
:105A40002A2800D1B9E10F0001319EE7A046AA46FD
:105A5000B146C84503D301235B424B4498464B46AD
:105A6000424659460020D047200025B0F0BCBB4636
:105A7000B246A946A046F0BD01006939C9B20F2956
:105A800000D950E701238B409C466B4B99466346F7
:105A90004A4613400F9362464B461A4200D068E1D3
:105AA0000A2956D0072900D03DE70D9B02CB984626
:105AB000002900D092E10B9B10211A008A431000AC
:105AC00011310843814680201A00C00002401100B5
:105AD00003421CD114AB9C461F220F2362440D9538
